:100000000C943B010C946C010C946C010C946C01ED
:100010000C946C010C946C010C946C010C946C01AC
:100020000C946C010C946C010C946C010C946C019C
:100030000C946C010C946C010C946C010C946C018C
:100040000C946C010C947B070C946C010C946C0167
:100050000C946C010C946C010C946C010C94D10602
:100060000C946C010C9445070C941B070C946C01C8
:100070000C946C010C946C010C946C010C946C014C
:100080000C946C010C946C010C946C010C946C013C
:100090000C946C010C946C010C946C010C946C012C
:1000A0000C946C010C946C010C946C010C946C011C
:1000B0000C946C010C946C010C946C010C946C010C
:1000C0000C946C010C946C010C946C010C946C01FC
:1000D0000C946C010C946C010C946C010C946C01EC
:1000E0000C946C010C94B9050C94CD010C94D101C5
:1000F0000C9486020C94A9020C94B9010C94CC01C6
:100100000C94A7010C948D030C94B1010C949A01EA
:100110000C94B1070C949E010C94B7020C943C0310
:100120000C948C010C94AB010C948E030C949502EE
:100130000C94C3010C94A1010C94EF020C94960151
:100140000C94C7010C9459020C9492010C94BF01B9
:100150000C94B501000020002300260029002C008B
:100160002F00320000010000030106010901000018
:100170002100240027002A002D0030003300010157
:100180000000040107010A010000220025002800E8
:100190002B002E003100340002010000050108018F
:1001A0000B010505050507050808080802020202FB
:1001B0000A0A080804040404010101010101010103
:1001C0000303030303030303040707070C0C0C0CCE
:1001D0000C0C0C0C020202020606060606060606B7
:1001E0000B0B0B0B0B0B0B0B010210202008081044
:1001F0002040102040800201020108040201010297
:10020000040810204080804020100804020180046F
:1002100002018040201008040201080402010102CA
:1002200004081020408001020408102040800000D3
:100230000A0B02090C0D0E08070304010000000060
:1002400000000000000000000000000000000000AE
:10025000000000000000000000001211100000006B
:10026000000000000000000000000000000000008E
:1002700000000000B10711241FBECFEFD1E2DEBFA6
:10028000CDBF00E00CBF12E0A0E0B2E0E6E6F3E193
:1002900000E00BBF02C007900D92A23DB107D9F755
:1002A00025E0A2EDB2E001C01D92A533B207E1F74F
:1002B00011E0CBE3D1E000E006C021970109802FD7
:1002C000FE010E94A909CA33D10780E00807A9F7F7
:1002D0000E94FB070C94B1090C94000081508231FC
:1002E00008F05AC0E82FF0E08827E658FE4F8F4FFD
:1002F0000C94A9099A019E018C0192019601CC01EE
:10030000A101A701AB01B101B501B901BF01C30151
:10031000CC01C701CD01D101809180008F778093FE
:1003200080000895809180008F7DF9CF80918000BA
:10033000877FF5CF84B58F7784BD089584B58F7D91
:10034000FBCF8091B0008F778093B00008958091AB
:10035000B0008F7DF9CF809190008F7780939000CF
:100360000895809190008F7DF9CF80919000877FD4
:10037000F5CF8091A0008F778093A00008958091A1
:10038000A0008F7DF9CF8091A000877FF5CF80916D
:1003900020018F77809320010895809120018F7D27
:1003A000F9CF80912001877FF5CF1F93CF93DF9303
:1003B000282F30E0F901E25DFD4F8491F901E85109
:1003C000FE4FD491F901EE55FE4FC491CC23A9F014
:1003D000162F81110E946E01EC2FF0E0EE0FFF1F2F
:1003E000E857FE4FA591B4918FB7F894EC91111195
:1003F00008C0D095DE23DC938FBFDF91CF911F9192
:100400000895DE2BF8CFCF93DF9390E0FC01E85105
:10041000FE4F24918E559E4FFC0184918823D1F08C
:1004200090E0880F991FFC01E259FE4FA591B4910D
:10043000FC01E857FE4FC591D491623071F49FB72B
:10044000F8943C91822F809583238C93E8812E2B06
:1004500028839FBFDF91CF9108958FB7F894EC91D7
:100460002E2B2C938FBFF6CF3FB7F89480917C044E
:1004700090917D04A0917E04B0917F0426B5A89B45
:1004800005C02F3F19F00196A11DB11D3FBFBA2F26
:10049000A92F982F8827BC01CD01620F711D811DE6
:1004A000911D42E0660F771F881F991F4A95D1F76B
:1004B0000895AF92BF92CF92DF92EF92FF920F9387
:1004C0001F93CF93DF936C017B018B01040F151FEA
:1004D000EB015E01AE18BF08C017D10759F0699152
:1004E000D601ED91FC910190F081E02DC6011995A6
:1004F000892B79F7C501DF91CF911F910F91FF9063
:10050000EF90DF90CF90BF90AF900895FC01538D96
:10051000448D252F30E0842F90E0821B930B5417DD
:1005200010F0CF96089501970895FC01918D828D6A
:10053000981761F0A28DAE0FBF2FB11D5D968C9103
:10054000928D9F5F9F73928F90E008958FEF9FEF42
:100550000895FC01918D828D981731F0828DE80FFE
:10056000F11D858D90E008958FEF9FEF0895FC01B8
:10057000918D228D892F90E0805C9F4F821B910985
:100580008F739927089580E894E00E94B70221E0D4
:10059000892B09F420E0822F0895FC01A48DA80F77
:1005A000B92FB11DA35ABF4F2C91848D90E00196B5
:1005B0008F739927848FA689B7892C93A089B189D5
:1005C0008C91837080648C93938D848D981306C076
:1005D0000288F389E02D80818F7D80830895EF92DA
:1005E000FF920F931F93CF93DF93EC0181E0888FED
:1005F0009B8D8C8D98131AC0E889F989808185FFBD
:1006000015C09FB7F894EE89FF896083E889F9895E
:1006100080818370806480839FBF81E090E0DF9160
:10062000CF911F910F91FF90EF900895F62E0B8DB3
:1006300010E00F5F1F4F0F731127E02E8C8D8E116E
:100640000CC00FB607FCFACFE889F989808185FFD5
:10065000F5CFCE010E94CD02F1CFEB8DEC0FFD2F37
:10066000F11DE35AFF4FF0829FB7F8940B8FEA8990
:10067000FB8980818062CFCFCF93DF93EC01888D9F
:100680008823B9F0AA89BB89E889F9898C9185FD0D
:1006900003C0808186FD0DC00FB607FCF7CF8C919B
:1006A00085FFF2CF808185FFEDCFCE010E94CD0284
:1006B000E9CFDF91CF91089580E090E0892B29F078
:1006C0000E94C30281110E94000080E090E0892B0B
:1006D00049F080E090E0892B29F00E940000811110
:1006E0000E94000080E090E0892B49F080E090E0DB
:1006F000892B29F00E94000081110E94000080E0F7
:1007000090E0892B49F080E090E0892B29F00E944D
:10071000000081110C9400000895089590E080E09D
:100720000895809175049091760461E0019709F035
:1007300060E089E20E94D501809175049091760471
:1007400061E0029709F060E088E20E94D5018091A3
:1007500075049091760461E0039709F060E087E208
:100760000C94D501CF92DF92EF92FF920F931F93DB
:10077000CF93DF939C01EB01FC01E25DFD4F84917F
:10078000F901E851FE4F0491F901EE55FE4F149125
:10079000112309F461C081110E946E01E12FF0E084
:1007A000EE0FFF1FEC5AFE4FA591B491EC910E2372
:1007B00031E020E009F430E0832F922F282F2170C0
:1007C000DE01AC5FBD4F3C918E01000F111F000F89
:1007D000111F321799F03FB7F894C0907804D09069
:1007E0007904E0907A04F0907B043FBFA8014E5258
:1007F0005D4FFA01C082D182E282F3823FB7F89462
:10080000409178045091790460917A0470917B044E
:100810003FBFF801EE52FD4FC080D180E280F380EF
:100820004C195D096E097F09493251056105710551
:10083000B0F0C050DE4F3881321789F02883F1E0E4
:100840008F2781702C93DF91CF911F910F91FF9093
:10085000EF90DF90CF90089590E080E0AFCF80E000
:10086000F1CFFB0101900020E9F73197AF01461B62
:10087000570BDC01ED91FC910280F381E02D19947E
:10088000CF93DF93BC0180E894E00E943104EC0137
:1008900066E272E080E894E00E9431048C0F9D1FB4
:1008A000DF91CF910895CF93DF93EC0160E08E81CB
:1008B0000E94D50161E08E810E94D50160E08E81A9
:1008C0000E94D5018BE891E00197F1F7DF91CF917C
:1008D0000895CF92DF92EF92FF920F931F93CF93E1
:1008E000DF936C017C0187E0E80EF11CD0E0C0E0F2
:1008F000062F10E0B8010C2E02C0759567950A947A
:10090000E2F76170F70181917F010E94D501219684
:10091000C430D10579F7C601DF91CF911F910F91B6
:10092000FF90EF90DF90CF900C945304CF92DF9222
:10093000EF92FF920F931F93CF93DF93EC01F62E6C
:10094000642F8C810E94D5018D818F3F19F060E06A
:100950000E94D5010F2D10E08F8584FF25C06E0108
:1009600087E0C80ED11CF12CE12CB8010E2C02C07E
:10097000759567950A94E2F76170F60181916F01B0
:100980000E94D501FFEFEF1AFF0A88E0E816F10494
:1009900061F7CE01DF91CF911F910F91FF90EF9002
:1009A000DF90CF900C945304B80184E0759567955F
:1009B0008A95E1F7CE010E9469046F2DCE01DF9187
:1009C000CF911F910F91FF90EF90DF90CF900C94FB
:1009D000690440E0682F8DE195E00C949604CF9374
:1009E000DF93823029F490912C05986090932C0528
:1009F000809330051092310580E48093320580E1C8
:100A00008093330580E58093340561E08091210572
:100A10000E940302809122058F3F19F061E00E943D
:100A2000030261E0809123050E940302CDE1D5E03D
:100A30009E012D51354080912C0584FD0BC084E032
:100A400090E021962817390744F461E08E810E94D6
:100A50000302EECF88E090E0F4CF8BE39DE00197B6
:100A6000F1F760E0809121050E94D50160E080915E
:100A700023050E94D501809122058F3F19F060E087
:100A80000E94D50180912C0584FD39C063E08DE181
:100A900095E00E946904CBE4D6E4CE010197F1F71A
:100AA00063E08DE195E00E9469042197F1F763E02E
:100AB0008DE195E00E94690483E592E00197F1F7EA
:100AC00062E08DE195E00E94690480912C058062CE
:100AD0000E94E90484E080932D058CE00E94E904E3
:100AE00081E00E94E9048BE39FE10197F1F782E046
:100AF00080932E0586E0DF91CF910C94E90480620B
:100B00000E94E9048BE496E40197F1F780912C05AB
:100B100080620E94E90483E592E00197F1F78091F9
:100B20002C0580620E94E904D0CF9091300589178E
:100B300010F08FEF890FE82FF0E0E35EFA4F848921
:100B400080680C94E904CF93DF93EC0181E00E946C
:100B5000950569E272E08DE195E00E94310481E043
:100B60000E949505BE018DE195E0DF91CF910C9437
:100B7000310441E00E94960481E090E008958F9254
:100B80009F92AF92BF92CF92DF92EF92FF920F931C
:100B90001F93CF93DF93CDB7DEB7A1970FB6F8942D
:100BA000DEBF0FBECDBF8091750490917604892B76
:100BB000B9F48AE392E00E944004A1960FB6F8943B
:100BC000DEBF0FBECDBFDF91CF911F910F91FF9080
:100BD000EF90DF90CF90BF90AF909F908F9008954F
:100BE000809175049091760400E712E0039711F468
:100BF00001E11AE783E592E00E94A3058DE592E00A
:100C00000E944004109274041092730410927204B3
:100C1000F894109389000093880010928500109238
:100C20008400789461E085E30E94D5018091810081
:100C300084608093810020E48091720481112FC030
:100C40008091730490917404883C9105A8F7809179
:100C50007B00886080937B0020937C0080917A00E9
:100C6000806480937A0080917A0086FDFCCF809129
:100C7000780090917900E0917304F0917404EE0F84
:100C8000FF1FEE51FD4F91838083809173049091FB
:100C9000740401969093740480937304CDCF84E61A
:100CA00092E00E94A30589E692E00E94400467E773
:100CB00072E080E894E00E94310492EEC92E92E046
:100CC000D92E10E000E02AE0822E912CA12CB12C2C
:100CD00080917304909174040817190790F5F60138
:100CE000219131916F0150E040E019A27E01F1E2C3
:100CF000EF0EF11CCA01B901A50194010E948709F8
:100D0000605DF70162937F012115310541055105B1
:100D100089F7309729F0BF0180E894E00E94310400
:100D2000809173049091740401970817190730F4A7
:100D300061E872E080E894E00E9431040F5F1F4F89
:100D4000C7CF66E272E080E894E00E9431040E941E
:100D500034026B017C0184EF882E99249394A12C9A
:100D6000B12C0E9434026C197D098E099F09683EDE
:100D7000734081059105A8F3F1E08F1A9108A1084D
:100D8000B10828EEC20E23E0D21EE11CF11C811432
:100D90009104A104B10429F78CE992E00E94A30513
:100DA0000CCF1F920F920FB60F9211242F933F93E7
:100DB0008F939F93AF93BF93809178049091790420
:100DC000A0917A04B0917B043091770423E0230F43
:100DD0002D3758F50196A11DB11D209377048093FE
:100DE000780490937904A0937A04B0937B04809163
:100DF0007C0490917D04A0917E04B0917F040196C3
:100E0000A11DB11D80937C0490937D04A0937E046A
:100E1000B0937F04BF91AF919F918F913F912F919C
:100E20000F900FBE0F901F90189526E8230F029683
:100E3000A11DB11DD2CF1F920F920FB60F92112498
:100E40000BB60F922F933F934F935F936F937F93C4
:100E50008F939F93AF93BF93EF93FF9380E894E0BA
:100E60000E94CD02FF91EF91BF91AF919F918F9121
:100E70007F916F915F914F913F912F910F900BBE9A
:100E80000F900FBE0F901F9018951F920F920FB6E4
:100E90000F9211240BB60F922F938F939F93EF9382
:100EA000FF93E0919004F09191048081E091960489
:100EB000F091970482FD1DC09081809199048F5F0D
:100EC0008F7320919A04821741F0E0919904F0E029
:100ED000E058FB4F958F80939904FF91EF919F917C
:100EE0008F912F910F900BBE0F900FBE0F901F9000
:100EF00018958081F2CF1F920F920FB60F92112496
:100F00000BB60F922F933F934F935F936F937F9303
:100F10008F939F93AF93BF93EF93FF9360E085E32D
:100F20000E94D501E1E8F0E08081887F8083109203
:100F300085001092840081E080937204FF91EF910C
:100F4000BF91AF919F918F917F916F915F914F91E1
:100F50003F912F910F900BBE0F900FBE0F901F90DF
:100F60001895E0E8F4E01382128288EE93E0A0E0A6
:100F7000B0E084839583A683B7838CE092E091836D
:100F8000808385EC90E09587848784EC90E0978758
:100F9000868780EC90E0918B808B81EC90E0938B46
:100FA000828B82EC90E0958B848B86EC90E0978B23
:100FB000868B118E128E138E148EEDE1F5E0138266
:100FC00012828EE192E09183808386E384838FEFA7
:100FD000858387E386838AE387838BE380878CE33B
:100FE00081878DE382871386148615861686178679
:100FF00081E00C94EF04789484B5826084BD84B55C
:10100000816084BD85B5826085BD85B5816085BD03
:1010100080916E00816080936E00109281008091BB
:101020008100826080938100809181008160809343
:101030008100809180008160809380008091B10068
:1010400084608093B1008091B00081608093B00093
:1010500080919100826080939100809191008160E5
:1010600080939100809190008160809390008091A6
:10107000A10082608093A1008091A1008160809393
:10108000A1008091A00081608093A0008091210147
:1010900082608093210180912101816080932101F0
:1010A0008091200181608093200180917A0084608A
:1010B00080937A0080917A00826080937A00809198
:1010C0007A00816080937A0080917A0080688093B2
:1010D0007A001092C100E0919004F091910482E0B6
:1010E0008083E0918C04F0918D041082E0918E0455
:1010F000F0918F048FEC808310929804E091940417
:10110000F091950486E08083E0919204F09193043D
:10111000808180618083E0919204F09193048081CA
:1011200088608083E0919204F091930480818068CC
:101130008083E0919204F091930480818F7D80837D
:1011400062E086E10E94030262E087E10E940302FE
:1011500062E088E10E94030262E089E10E940302EA
:1011600061E089E20E94030261E088E20E940302DA
:1011700061E087E20E94030260E089E20E94D501FB
:1011800060E088E20E94D50160E087E20E94D5011C
:1011900061E085E30E94030260E085E30E94D501DF
:1011A00082E00E94EF0480E00E94950563E872E00F
:1011B0008DE195E00E94310481E00E94950564E98B
:1011C00072E08DE195E00E9431041092800010924F
:1011D00081001092850010928400809181008860C7
:1011E0008093810080916F00826080936F00C3E0E4
:1011F000D0E001E010E082E0E82EF12C80E894E0FD
:101200000E94B702181619067CF480E894E00E9448
:101210009502833309F46EC00CF048C0813309F4A1
:101220004DC0823309F459C070E060E086E190E07F
:101230000E94B203882351F0109376040093750442
:101240000E94910388EA92E00E94A30561E070E0A9
:1012500087E190E00E94B203882351F0F092760477
:10126000E09275040E9491038BEB92E00E94A3052B
:1012700062E070E088E190E00E94B203882351F0C0
:10128000D0937604C09375040E9491038DEC92E094
:101290000E94A30563E070E089E190E00E94B20340
:1012A00081110E94BF050E945C03A8CF863419F00B
:1012B000863609F0B9CF0E94BF05B6CF10937604E9
:1012C000009375040E94910388EA92E00E94A305AE
:1012D00082EA92E00E944004A7CFF0927604E09266
:1012E00075040E9491038BEB92E00E94A30585EBAD
:1012F00092E0F0CFD0937604C09375040E949103DE
:101300008DEC92E00E94A30587EC92E0E3CFA1E28E
:101310001A2EAA1BBB1BFD010DC0AA1FBB1FEE1F6F
:10132000FF1FA217B307E407F50720F0A21BB30BBA
:10133000E40BF50B661F771F881F991F1A9469F736
:1013400060957095809590959B01AC01BD01CF0192
:101350000895EE0FFF1F881F8BBF0790F691E02DB9
:061360001994F894FFCF80
:10136600010101010101010100000000EF02590223
:1013760086023C03B7029502A90200000000B905E7
:1013860059028E038D030D0A0020202020202020E4
:10139600202020202020202020004552524F523A63
:1013A600204E6F2070686173652073656C65637489
:1013B600656400466972696E672E2E2E0046495294
:1013C600494E4700446F6E6500464952455F434F9C
:1013D6004D504C4554450057415645464F524D3A9F
:1013E600002C0053544F4320546573742053797373
:1013F60074656D005374617475733A205265616447
:1014060079004D4F44453A2053696E676C6520500C
:1014160068617365004D4F44453A205468726565AE
:10142600205068617365004D4F44453A204C544343
:02143600540060
:00000001FF
